{
  "_format": "hh-sol-artifact-1",
  "contractName": "ResumeValidation",
  "sourceName": "contracts/ResumeValidation.sol",
  "abi": [
    {
      "anonymous": false,
      "inputs": [
        {
          "indexed": true,
          "internalType": "address",
          "name": "user",
          "type": "address"
        },
        {
          "indexed": false,
          "internalType": "string",
          "name": "ipfsHash",
          "type": "string"
        }
      ],
      "name": "ResumeUploaded",
      "type": "event"
    },
    {
      "anonymous": false,
      "inputs": [
        {
          "indexed": true,
          "internalType": "address",
          "name": "user",
          "type": "address"
        },
        {
          "indexed": false,
          "internalType": "bool",
          "name": "isValid",
          "type": "bool"
        }
      ],
      "name": "ResumeValidated",
      "type": "event"
    },
    {
      "inputs": [
        {
          "internalType": "address",
          "name": "_user",
          "type": "address"
        }
      ],
      "name": "getResume",
      "outputs": [
        {
          "internalType": "string",
          "name": "",
          "type": "string"
        },
        {
          "internalType": "bool",
          "name": "",
          "type": "bool"
        }
      ],
      "stateMutability": "view",
      "type": "function"
    },
    {
      "inputs": [
        {
          "internalType": "address",
          "name": "",
          "type": "address"
        }
      ],
      "name": "resumes",
      "outputs": [
        {
          "internalType": "string",
          "name": "ipfsHash",
          "type": "string"
        },
        {
          "internalType": "bool",
          "name": "validated",
          "type": "bool"
        }
      ],
      "stateMutability": "view",
      "type": "function"
    },
    {
      "inputs": [
        {
          "internalType": "string",
          "name": "_ipfsHash",
          "type": "string"
        }
      ],
      "name": "uploadResume",
      "outputs": [],
      "stateMutability": "nonpayable",
      "type": "function"
    },
    {
      "inputs": [
        {
          "internalType": "address",
          "name": "_user",
          "type": "address"
        }
      ],
      "name": "validateResume",
      "outputs": [],
      "stateMutability": "nonpayable",
      "type": "function"
    }
  ],
  "bytecode": "0x608060405234801561001057600080fd5b50610b70806100206000396000f3fe608060405234801561001057600080fd5b506004361061004c5760003560e01c80632e32396114610051578063311a5ae51461006d578063dcd4fd2a1461009e578063f82dbb5a146100ba575b600080fd5b61006b6004803603810190610066919061060b565b6100eb565b005b610087600480360381019061008291906106b2565b6101cb565b604051610095929190610779565b60405180910390f35b6100b860048036038101906100b391906106b2565b6102bc565b005b6100d460048036038101906100cf91906106b2565b6103f8565b6040516100e2929190610779565b60405180910390f35b6040518060400160405280828152602001600015158152506000803373ffffffffffffffffffffffffffffffffffffffff1673ffffffffffffffffffffffffffffffffffffffff168152602001908152602001600020600082015181600001908161015691906109bf565b5060208201518160010160006101000a81548160ff0219169083151502179055509050503373ffffffffffffffffffffffffffffffffffffffff167f12bf196a4580bd7631f39631584e95f3d56906e4b5d194ca4a46b1fd793b400c826040516101c09190610a91565b60405180910390a250565b60606000806000808573ffffffffffffffffffffffffffffffffffffffff1673ffffffffffffffffffffffffffffffffffffffff1681526020019081526020016000209050806000018160010160009054906101000a900460ff16818054610232906107d8565b80601f016020809104026020016040519081016040528092919081815260200182805461025e906107d8565b80156102ab5780601f10610280576101008083540402835291602001916102ab565b820191906000526020600020905b81548152906001019060200180831161028e57829003601f168201915b505050505091509250925050915091565b60008060008373ffffffffffffffffffffffffffffffffffffffff1673ffffffffffffffffffffffffffffffffffffffff168152602001908152602001600020600001805461030a906107d8565b90501161034c576040517f08c379a000000000000000000000000000000000000000000000000000000000815260040161034390610aff565b60405180910390fd5b60016000808373ffffffffffffffffffffffffffffffffffffffff1673ffffffffffffffffffffffffffffffffffffffff16815260200190815260200160002060010160006101000a81548160ff0219169083151502179055508073ffffffffffffffffffffffffffffffffffffffff167fa71c49a2666ae5879b7fc5cd70c69888c589abe370958fe07c3e9874a431e00060016040516103ed9190610b1f565b60405180910390a250565b600060205280600052604060002060009150905080600001805461041b906107d8565b80601f0160208091040260200160405190810160405280929190818152602001828054610447906107d8565b80156104945780601f1061046957610100808354040283529160200191610494565b820191906000526020600020905b81548152906001019060200180831161047757829003601f168201915b5050505050908060010160009054906101000a900460ff16905082565b6000604051905090565b600080fd5b600080fd5b600080fd5b600080fd5b6000601f19601f8301169050919050565b7f4e487b7100000000000000000000000000000000000000000000000000000000600052604160045260246000fd5b610518826104cf565b810181811067ffffffffffffffff82111715610537576105366104e0565b5b80604052505050565b600061054a6104b1565b9050610556828261050f565b919050565b600067ffffffffffffffff821115610576576105756104e0565b5b61057f826104cf565b9050602081019050919050565b82818337600083830152505050565b60006105ae6105a98461055b565b610540565b9050828152602081018484840111156105ca576105c96104ca565b5b6105d584828561058c565b509392505050565b600082601f8301126105f2576105f16104c5565b5b813561060284826020860161059b565b91505092915050565b600060208284031215610621576106206104bb565b5b600082013567ffffffffffffffff81111561063f5761063e6104c0565b5b61064b848285016105dd565b91505092915050565b600073ffffffffffffffffffffffffffffffffffffffff82169050919050565b600061067f82610654565b9050919050565b61068f81610674565b811461069a57600080fd5b50565b6000813590506106ac81610686565b92915050565b6000602082840312156106c8576106c76104bb565b5b60006106d68482850161069d565b91505092915050565b600081519050919050565b600082825260208201905092915050565b60005b838110156107195780820151818401526020810190506106fe565b60008484015250505050565b6000610730826106df565b61073a81856106ea565b935061074a8185602086016106fb565b610753816104cf565b840191505092915050565b60008115159050919050565b6107738161075e565b82525050565b600060408201905081810360008301526107938185610725565b90506107a2602083018461076a565b9392505050565b7f4e487b7100000000000000000000000000000000000000000000000000000000600052602260045260246000fd5b600060028204905060018216806107f057607f821691505b602082108103610803576108026107a9565b5b50919050565b60008190508160005260206000209050919050565b60006020601f8301049050919050565b600082821b905092915050565b60006008830261086b7fffffffffffffffffffffffffffffffffffffffffffffffffffffffffffffffff8261082e565b610875868361082e565b95508019841693508086168417925050509392505050565b6000819050919050565b6000819050919050565b60006108bc6108b76108b28461088d565b610897565b61088d565b9050919050565b6000819050919050565b6108d6836108a1565b6108ea6108e2826108c3565b84845461083b565b825550505050565b600090565b6108ff6108f2565b61090a8184846108cd565b505050565b5b8181101561092e576109236000826108f7565b600181019050610910565b5050565b601f8211156109735761094481610809565b61094d8461081e565b8101602085101561095c578190505b6109706109688561081e565b83018261090f565b50505b505050565b600082821c905092915050565b600061099660001984600802610978565b1980831691505092915050565b60006109af8383610985565b9150826002028217905092915050565b6109c8826106df565b67ffffffffffffffff8111156109e1576109e06104e0565b5b6109eb82546107d8565b6109f6828285610932565b600060209050601f831160018114610a295760008415610a17578287015190505b610a2185826109a3565b865550610a89565b601f198416610a3786610809565b60005b82811015610a5f57848901518255600182019150602085019450602081019050610a3a565b86831015610a7c5784890151610a78601f891682610985565b8355505b6001600288020188555050505b505050505050565b60006020820190508181036000830152610aab8184610725565b905092915050565b7f4e6f20726573756d652075706c6f616465640000000000000000000000000000600082015250565b6000610ae96012836106ea565b9150610af482610ab3565b602082019050919050565b60006020820190508181036000830152610b1881610adc565b9050919050565b6000602082019050610b34600083018461076a565b9291505056fea264697066735822122077576eeab1e91b795522ea1b1472d62786a18a640a36e55608c28d4e00366df464736f6c63430008140033",
  "linkReferences": {},
  "deployedLinkReferences": {}
}