{
  "_format": "hh-sol-artifact-1",
  "contractName": "ResumeStorage",
  "sourceName": "contracts/ResumeStorage.sol",
  "abi": [
    {
      "anonymous": false,
      "inputs": [
        {
          "indexed": true,
          "internalType": "address",
          "name": "user",
          "type": "address"
        },
        {
          "indexed": false,
          "internalType": "string",
          "name": "ipfsHash",
          "type": "string"
        }
      ],
      "name": "ResumeUploaded",
      "type": "event"
    },
    {
      "inputs": [
        {
          "internalType": "address",
          "name": "_user",
          "type": "address"
        }
      ],
      "name": "getResume",
      "outputs": [
        {
          "internalType": "string",
          "name": "",
          "type": "string"
        },
        {
          "internalType": "bool",
          "name": "",
          "type": "bool"
        }
      ],
      "stateMutability": "view",
      "type": "function"
    },
    {
      "inputs": [
        {
          "internalType": "address",
          "name": "",
          "type": "address"
        }
      ],
      "name": "resumes",
      "outputs": [
        {
          "internalType": "string",
          "name": "ipfsHash",
          "type": "string"
        },
        {
          "internalType": "bool",
          "name": "validated",
          "type": "bool"
        }
      ],
      "stateMutability": "view",
      "type": "function"
    },
    {
      "inputs": [
        {
          "internalType": "string",
          "name": "_ipfsHash",
          "type": "string"
        }
      ],
      "name": "uploadResume",
      "outputs": [],
      "stateMutability": "nonpayable",
      "type": "function"
    }
  ],
  "bytecode": "0x608060405234801561001057600080fd5b50610986806100206000396000f3fe608060405234801561001057600080fd5b50600436106100415760003560e01c80632e32396114610046578063311a5ae514610062578063f82dbb5a14610093575b600080fd5b610060600480360381019061005b91906104a8565b6100c4565b005b61007c6004803603810190610077919061054f565b6101a4565b60405161008a929190610616565b60405180910390f35b6100ad60048036038101906100a8919061054f565b610295565b6040516100bb929190610616565b60405180910390f35b6040518060400160405280828152602001600015158152506000803373ffffffffffffffffffffffffffffffffffffffff1673ffffffffffffffffffffffffffffffffffffffff168152602001908152602001600020600082015181600001908161012f919061085c565b5060208201518160010160006101000a81548160ff0219169083151502179055509050503373ffffffffffffffffffffffffffffffffffffffff167f12bf196a4580bd7631f39631584e95f3d56906e4b5d194ca4a46b1fd793b400c82604051610199919061092e565b60405180910390a250565b60606000806000808573ffffffffffffffffffffffffffffffffffffffff1673ffffffffffffffffffffffffffffffffffffffff1681526020019081526020016000209050806000018160010160009054906101000a900460ff1681805461020b90610675565b80601f016020809104026020016040519081016040528092919081815260200182805461023790610675565b80156102845780601f1061025957610100808354040283529160200191610284565b820191906000526020600020905b81548152906001019060200180831161026757829003601f168201915b505050505091509250925050915091565b60006020528060005260406000206000915090508060000180546102b890610675565b80601f01602080910402602001604051908101604052809291908181526020018280546102e490610675565b80156103315780601f1061030657610100808354040283529160200191610331565b820191906000526020600020905b81548152906001019060200180831161031457829003601f168201915b5050505050908060010160009054906101000a900460ff16905082565b6000604051905090565b600080fd5b600080fd5b600080fd5b600080fd5b6000601f19601f8301169050919050565b7f4e487b7100000000000000000000000000000000000000000000000000000000600052604160045260246000fd5b6103b58261036c565b810181811067ffffffffffffffff821117156103d4576103d361037d565b5b80604052505050565b60006103e761034e565b90506103f382826103ac565b919050565b600067ffffffffffffffff8211156104135761041261037d565b5b61041c8261036c565b9050602081019050919050565b82818337600083830152505050565b600061044b610446846103f8565b6103dd565b90508281526020810184848401111561046757610466610367565b5b610472848285610429565b509392505050565b600082601f83011261048f5761048e610362565b5b813561049f848260208601610438565b91505092915050565b6000602082840312156104be576104bd610358565b5b600082013567ffffffffffffffff8111156104dc576104db61035d565b5b6104e88482850161047a565b91505092915050565b600073ffffffffffffffffffffffffffffffffffffffff82169050919050565b600061051c826104f1565b9050919050565b61052c81610511565b811461053757600080fd5b50565b60008135905061054981610523565b92915050565b60006020828403121561056557610564610358565b5b60006105738482850161053a565b91505092915050565b600081519050919050565b600082825260208201905092915050565b60005b838110156105b657808201518184015260208101905061059b565b60008484015250505050565b60006105cd8261057c565b6105d78185610587565b93506105e7818560208601610598565b6105f08161036c565b840191505092915050565b60008115159050919050565b610610816105fb565b82525050565b6000604082019050818103600083015261063081856105c2565b905061063f6020830184610607565b9392505050565b7f4e487b7100000000000000000000000000000000000000000000000000000000600052602260045260246000fd5b6000600282049050600182168061068d57607f821691505b6020821081036106a05761069f610646565b5b50919050565b60008190508160005260206000209050919050565b60006020601f8301049050919050565b600082821b905092915050565b6000600883026107087fffffffffffffffffffffffffffffffffffffffffffffffffffffffffffffffff826106cb565b61071286836106cb565b95508019841693508086168417925050509392505050565b6000819050919050565b6000819050919050565b600061075961075461074f8461072a565b610734565b61072a565b9050919050565b6000819050919050565b6107738361073e565b61078761077f82610760565b8484546106d8565b825550505050565b600090565b61079c61078f565b6107a781848461076a565b505050565b5b818110156107cb576107c0600082610794565b6001810190506107ad565b5050565b601f821115610810576107e1816106a6565b6107ea846106bb565b810160208510156107f9578190505b61080d610805856106bb565b8301826107ac565b50505b505050565b600082821c905092915050565b600061083360001984600802610815565b1980831691505092915050565b600061084c8383610822565b9150826002028217905092915050565b6108658261057c565b67ffffffffffffffff81111561087e5761087d61037d565b5b6108888254610675565b6108938282856107cf565b600060209050601f8311600181146108c657600084156108b4578287015190505b6108be8582610840565b865550610926565b601f1984166108d4866106a6565b60005b828110156108fc578489015182556001820191506020850194506020810190506108d7565b868310156109195784890151610915601f891682610822565b8355505b6001600288020188555050505b505050505050565b6000602082019050818103600083015261094881846105c2565b90509291505056fea26469706673582212204a3054f1338ff978ffc2be6cc7bb23914cd5e21edc33dccfcb2cf7a88c460bbd64736f6c63430008140033",
  "linkReferences": {},
  "deployedLinkReferences": {}
}